S0210000416C7068616E756D65726963446973706C61794472697665722E73726563E8
S11300000C942A000C943F000C943F000C943F0085
S11300100C943F000C943F000C943F000C943F0060
S11300200C943F000C943F000C943F000C943F0050
S11300300C943F000C943F000C943F000C943F0040
S11300400C943F000C943F000C943F000C943F0030
S11300500C943F0011241FBECFE5D8E0DEBFCDBF16
S113006010E0A0E6B0E0E0E5F5E002C005900D92F6
S1130070A23BB107D9F70E9456010C94A6020C9436
S11300800000AA9A00000000000000000895AA9849
S11300900000000008951F93CF93DF9384B38F7003
S11300A084BBA99AA898C0E0D0E00E94410013B391
S11300B00E9447000E9441000E944700112314F44B
S11300C0219799F784B3806F84BBDF91CF911F91FF
S11300D00895CF93C82F0E944B008C2F807F85BB3F
S11300E00E9441000E94470020E1C29FC0011124E8
S11300F085BB0E9441000E944700CF910895CF9391
S1130100C82F0E944B008C2F807F816085BB0E948A
S113011041000E94470020E1C29FC0011124816078
S113012085BB0E9441000E944700CF910895CF9360
S11301308FEF84BB15BA8FEF93EB0197F1F700C0F3
S11301400000C0E3C5BB0E9441000E9447008FEF3E
S113015093E20197F1F700C00000C5BB0E94410083
S11301600E9447008FEF93E20197F1F700C000006F
S1130170C5BB0E9441000E9447008FEF93E20197A4
S1130180F1F700C0000080E285BB0E9441000E949C
S1130190470088E20E94690088E00E94690081E0CB
S11301A00E94690086E00E9469008CE00E94690058
S11301B0CF91089581E00E9469000895883208F083
S11301C087E2611102C090E001C090E4890F806869
S11301D00E94690008950E947F000895CF93DF93E1
S11301E0EC018881882331F021960E947F00899157
S11301F08111FBCFDF91CF910895CF93DF93CDB7DA
S1130200DEB760970FB6F894DEBF0FBECDBF188A75
S11302104AE0BE016F5F7F4F0E947102CE010196DA
S11302200E94EE0060960FB6F894DEBF0FBECDBFFD
S1130230DF91CF9108950F931F93CF93DF9387702E
S1130240D82FDD0FDD0FDD0F062F172FC0E08C2F09
S11302508D2B80640E946900F80181918F010E94B6
S11302607F00CF5FC83099F7DF91CF911F910F9135
S11302700895811102C09CE001C09EE081E06111FB
S113028001C080E0892B0E946900089580E10E94EA
S11302906900089584E10E946900089588E10E943C
S11302A0690008958CE10E9469000895CF93DF935B
S11302B0CDB7DEB72F970FB6F894DEBF0FBECDBF14
S11302C08FE0E2E7F0E0DE01119601900D928A954D
S11302D0E1F70E94970069EA70E080E00E941B0148
S11302E061EA70E081E00E941B0169E970E082E04C
S11302F00E941B0161E970E083E00E941B0169E830
S113030070E084E00E941B0161E870E085E00E94D7
S11303101B010F2EF0EDEF2EF02D0F2EFAE8FF2E1D
S1130320F02D0E94DA0060E082E00E94DE0080E6A8
S113033090E00E94EE002FEF8FE796E1215080407D
S11303409040E1F700C000000E94DA0061E083E021
S11303500E94DE0089E690E00E94EE002FEF8FE716
S113036096E1215080409040E1F700C000000E94D7
S1130370DA0081E40E94EB0082E40E94EB0083E453
S11303800E94EB0080E20E94EB0080E00E94EB0000
S113039081E00E94EB0082E00E94EB0083E00E9477
S11303A0EB0084E00E94EB0085E00E94EB0061E03A
S11303B080E00E94DE00CE0101960E94EE002FEF45
S11303C08FE796E1215080409040E1F700C00000A3
S11303D060E081E00E9439012FEF8FE39BE0215020
S11303E080409040E1F700C0000061E083E00E949B
S11303F0DE0061E080E00E9439012FEF8FE796E193
S1130400215080409040E1F700C0000061E081E0AD
S11304100E9439012FEF8FE796E1215080409040F0
S1130420E1F700C000000E9446010E9446012FEF40
S11304308FE39BE0215080409040E1F700C0000032
S11304400E944A010E944A010E944A010E944A01F4
S11304502FEF8FE39BE0215080409040E1F700C0F4
S113046000000E9452010E9452012FEF8FE39BE093
S1130470215080409040E1F700C000000E944E01EE
S11304802FEF8FE39BE0215080409040E1F700C0C4
S1130490000060E080E00E9439010E94DA000E2D25
S11304A01F2D60E084E00E94DE00C8010E94FD0070
S11304B061E084E00E94DE00C801805A95410E94F8
S11304C0FD002FEF8FE995E0215080409040E1F747
S11304D000C000000F5F1F4F0A3D2AE8120709F70A
S11304E020CFBB274A3031F4992322F4BDE2909502
S11304F081959F4F0C947D02BB27FB015527AA27AA
S1130500880F991FAA1FA41710F0A41B839550519C
S1130510B9F7A05DAA3308F0A95DA193009779F714
S1130520B111B1931192CB010C949602DC01FC0140
S1130530672F71917723E1F7329704C07C916D9313
S113054070836291AE17BF07C8F30895F894FFCF84
S1130550583D322C20593D3000583D332C20593D14
S11305603100537472696E6720696E205352414D95
S11305700004000E1212120D0000000E1315190EC5
S11305800000000E1515150F00040E111F11111196
S1130590000E11131519110E000F14141F14141743
S10505A0000055
S9030000FC
