S01200004849444B6579735F48482E73726563B2
S11300000C9485000C94A4000C94A2000C94A200FF
S11300100C94A2000C94A2000C94A2000C94A200D4
S11300200C94A2000C94A2000C94A2000C94A200C4
S11300300C94A2000C94A2000C94A2000C94A200B4
S11300400C94A2000C94A2000C94A2000C94A200A4
S11300500C94A20005010906A101050719E029E78E
S1130060150025017501950881029501750825651E
S1130070190029658100C00000020402050206027D
S11300800702080209020A020B020C020D020E0208
S11300900F021002110212021302140215021602B8
S11300A01702180219021A021B0403090412036F2F
S11300B00062006400650076002E00610074001682
S11300C0034800490044004B006500790073005F59
S11300D000480048001201010100000008424231BA
S11300E0E100010102000109022200010100803245
S11300F0090400000103000000092101010001229C
S113010023000705810308000A0011241FBECFE560
S1130110D8E0DEBFCDBF10E0A0E6B0E0E0ECFCE04C
S113012002C005900D92A436B107D9F720E0A4E6E9
S1130130B0E001C01D92AD39B207E1F70E943B0364
S11301400C945E060C940000CF93CFB7CF93809BA2
S1130150FECF809B09C0809B07C0809B05C0809B0D
S113016003C0809B01C09EC0DF93C0918000DD2747
S1130170C957DF4F809B02C0DF91EBCF2F930F93C2
S11301801F9300B32FEF00FB20F94F933F9310B35D
S11301904FEF012700FB21F93BE031C04E7F012FD7
S11301A010B3216028C0102F4D7F2260000000B3DF
S11301B029C04B7F2460012F000010B32BC010B363
S11301C0477F28602AC04F7E00B320612CC04F7D3A
S11301D010B320622FC04F7B00B3206432C042278B
S11301E000B349934FEF0000102710FB20F910B320
S11301F01570A9F1297F91F2012700FB21F900B3C1
S1130200237F89F23150F0F1102710FB22F910B34B
S1130210277E79F2012700FB23F92F7C81F200B3BA
S1130220102710FB24F92F7971F200C010B30127B5
S113023000FB25F92F7359F200C000B3102710FBFF
S113024026F9223040F200C010B3012700FB27F941
S1130250243028F64F77206810B30000F9CF3B50C4
S11302603195333010E41ABFB8F0C31BD040088175
S1130270033C41F10B3431F11981412F1F77209157
S11302807E00121731F4093691F10D3279F0013EF6
S113029069F02227209385003F914F911F910F9180
S11302A02F91DF91CF91CFBFCF9118950093850007
S11302B03F914F911F910F912F91DF91CAB7C6FDC6
S11302C046CFF0CF00918500002331F310918300D5
S11302D01123A1F53430A2F13093830000937F0001
S11302E0109180003BE0311B3093800029C00091C5
S11302F0830001301CF50AE547FD09C03091610017
S113030034FD20C000936100C8E6D0E01FC03091E6
S1130310620034FD17C000936200C3E7D0E016C04A
S1130320052710E002BB1FC0052722C0052727C0F0
S113033005272CC0052710E002BB33C04AE503C0E3
S113034042ED01C0432FC4E1D0E032E011B31560A7
S1130350909A02B311BB5F9355E020E820FF052774
S113036002BB279517951C3FD8F620FF0527279534
S113037002BB17951C3FC0F620FF0527279517954C
S113038002BB1C3F98F620FF0527279517951C3FB5
S113039002BB70F600C0499120FF052702BB2795D8
S11303A017951C3F38F620FF0527279502BB1795A4
S11303B01C3F38F520FF05272795179502BB1C3FE6
S11303C010F520FF0527279517951C3F02BBE8F47D
S11303D0242F3A9519F60A7F5F9102BB00C0109151
S11303E08400C651D04011F010937E0010E41ABF6F
S11303F0016011B31A7F402F4A7F02BB11BB42BB7D
S11304004BCF0527D3CF0527D8CF0527DDCFA82F7E
S1130410B92F8FEF9FEF41E050EA615070F02D91BA
S113042038E0722F782796958795269570FF02C03D
S1130430842795273A95A9F7F0CF8095909508954C
S1130440E6DF8D939D930895CF93DF9300D0CDB7CE
S1130450DEB78BE390E02FEFFC0120838AE390E08A
S1130460FC01108288E390E02FEFFC01208387E3F6
S113047090E0FC01108285E390E02FEFFC012083E3
S113048084E390E0FC01108282E390E02AEFFC0117
S1130490208381E390E027E0FC0120831A8207C0D7
S11304A0198289818150898389818823D1F78A813E
S11304B081508A838A81882399F781E390E022E03E
S11304C0FC01208383E590E025E0FC0120830F906C
S11304D00F90DF91CF910895CF93DF9300D01F92B7
S11304E0CDB7DEB789E390E0FC0180818B8381E0A6
S11304F08A8319820EC09B818A818923882319F4F7
S113050089818F5F3EC08A81880F8A8389818F5F4A
S113051089838981883078F386E390E0FC018081C7
S11305208B8381E08A8319820EC09B818A8189230F
S1130530882319F48981875F24C08A81880F8A837C
S113054089818F5F89838981883078F383E390E0A0
S1130550FC0180818B8381E08A8319820EC09B8198
S11305608A818923882319F489818F5E0AC08A814C
S1130570880F8A8389818F5F89838981883078F3A2
S113058080E00F900F900F90DF91CF910895CF935B
S1130590DF9300D000D01F92CDB7DEB78D8324E661
S11305A030E08D81882F90E0880F991F89589F4FE4
S11305B09A83898389819A81FC0145915491CF0161
S11305C05C834B839A8389838B819C81F90191831A
S11305D080830F900F900F900F900F90DF91CF9129
S11305E00895CF93DF9300D000D0CDB7DEB79C83BE
S11305F08B838B819C819A83898384E690E090939A
S113060082008093810089819A81FC018081882FF6
S113061090E080769927809731F589819A81FC0151
S11306208181813031F40E946C020E94C70282E011
S11306301BC089819A81FC018181823041F486E664
S113064090E0909382008093810081E00DC08981C5
S11306509A81FC0181818A3031F489819A81FC017B
S113066083818093660080E00F900F900F900F902D
S1130670DF91CF910895CF93DF9300D000D0CDB711
S1130680DEB719821A821B8287E087708860982FF0
S113069088E10FB6F894A89581BD0FBE91BD0E9464
S11306A024020E9442067894A8950E94FB050E94A9
S11306B06C028C8399818C81981721F08C818983B9
S11306C081E08A8388E590E0FC018081882F90E0B6
S11306D081709927892BA9F088E590E021E0FC013D
S11306E0208380916600882361F08B81853020F01F
S11306F08B8185508B8305C0809166008B8381E05C
S11307008A838A81882389F080916200882F90E00F
S113071080719927892B49F01A8289810E94C70226
S113072062E084E690E00E949603BECFCF93DF930D
S113073000D000D000D0CDB7DEB79D838C836E830C
S113074080916200882F90E080719927892B39F07D
S11307509091730088E889278093730003C08AE529
S11307608093620084E790E09A8389838E818B83EF
S113077012C089819A819C012F5F3F4F3A8329835C
S11307802C813D81A9014F5F5F4F5D834C83F9014B
S11307902081FC0120838B819FEF980F9B8388230A
S11307A041F784E790E06E810E9420028E818C5F85
S11307B08093620026960FB6F894DEBF0FBECDBFBD
S11307C0DF91CF910895CF93DF93CDB7DEB72A970A
S11307D00FB6F894DEBF0FBECDBF998788876A87AE
S11307E08A85898380918100909182009B838A838A
S11307F080916700882F90E080749927892B11F1EC
S11308001AC08A819B819D838C838C819D81FC018C
S113081084918E838E818F83888599859C012F5F37
S11308203F4F398728872F81FC0120838A819B8150
S113083001969B838A8389819FEF980F99838823EC
S113084001F719C012C0888599859C012F5F3F4F1D
S1130850398728872A813B81A9014F5F5F4F5B83DA
S11308604A83F9012081FC01208389819FEF980F3D
S11308709983882341F78A819B8190938200809396
S113088081008A852A960FB6F894DEBF0FBECDBFCD
S1130890DF91CF910895CF93DF93CDB7DEB72B9738
S11308A00FB6F894DEBF0FBECDBF9A8789876B87DA
S11308B089859A859C838B83198280E88A838091B9
S11308C07F008D3209F027C18AE5809361008B8512
S11308D0883009F020C18B819C81FC018081807665
S11308E08D838D81882309F0FEC081E790E09F838A
S11308F08E838E819F81FC0110828B819C81FC01FF
S113090081818823A1F48B819C81FC0180818F717A
S113091088878E819F810196FC01108282E0898301
S11309208E819F819093820080938100DBC08B81B4
S11309309C81FC018181853039F48B819C81FC018F
S1130940828180938400CEC08B819C81FC01818153
S1130950863009F08FC080EC8A838B819C81FC01F6
S11309608381813069F485ED90E09F838E8382E1F9
S113097089838E819F819093820080938100B2C08D
S11309808B819C81FC018381823069F487EE90E045
S11309909F838E8382E289838E819F8190938200DC
S11309A0809381009FC08B819C81FC018381833073
S11309B0D1F58B819C81FC018281882369F489EAC9
S11309C090E09F838E8384E089838E819F819093BE
S11309D082008093810086C08B819C81FC0182818E
S11309E0813069F48DEA90E09F838E8382E189836C
S11309F08E819F81909382008093810073C08B814C
S1130A009C81FC018281823009F06CC08FEB90E004
S1130A109F838E8386E189838E819F819093820058
S1130A20809381005FC08B819C81FC018381813232
S1130A3069F489EF90E09F838E8389E089838E81B6
S1130A409F8190938200809381004CC08B819C8114
S1130A50FC018381823209F045C084E590E09F83E4
S1130A608E8383E289838E819F8190938200809319
S1130A70810038C08B819C81FC018181883069F4BC
S1130A8086E890E09F838E8381E089838E819F81B5
S1130A90909382008093810025C08B819C81FC010E
S1130AA08181893039F48B819C81FC01828180931E
S1130AB0860018C08B819C81FC0181818A3049F4B5
S1130AC081E089838E819F8190938200809381004D
S1130AD009C08B819C81FC0181818B3019F483ECEA
S1130AE08093730005C089859A850E94F1028983E9
S1130AF08B819C81FC018781882369F48B819C8193
S1130B00FC0196818981981730F48B819C81FC01CA
S1130B108681898300C08A8180936700898180935C
S1130B2060002B960FB6F894DEBF0FBECDBFDF91E9
S1130B30CF910895CF93DF9300D000D0CDB7DEB727
S1130B408091600089838981893010F088E08983ED
S1130B50909160008981292F281B822F8093600047
S1130B608BE48B8380916700882F90E081709927B4
S1130B70892B11F083EC8B83809167008F5F8093C6
S1130B806700698189E690E00E94E3038C838C818D
S1130B90893078F489E690E06C810E9420028C818F
S1130BA08C5F8A838C81883048F48FEF8093600057
S1130BB005C08EE18A838FEF809360008B818093E0
S1130BC068008A81809361000F900F900F900F90BE
S1130BD0DF91CF910895CF93DF931F92CDB7DEB706
S1130BE080E390E0FC0180818570898389810F9086
S1130BF0DF91CF910895CF93DF9300D0CDB7DEB7C7
S1130C00809183008A838A811816A4F48A814DEF27
S1130C10480F80918000882F90E02CE030E0B901EB
S1130C20681B790BCB0189579F4F642F0E944B049B
S1130C301092830080916100882F90E08071992741
S1130C40892B31F0809160008F3F11F00E949A054A
S1130C508AE0898308C00E94EB05882309F006C056
S1130C6089818150898389818823A9F7898188238F
S1130C7021F41092840010927E000F900F90DF9167
S1130C80CF910895CF93DF93CDB7DEB785E590E09C
S1130C9025E530E0F90120812360FC0120838BE508
S1130CA090E02BE530E0F90120812064FC012083F1
S1130CB083EC80937300DF91CF910895F894FFCF74
S1070CC0FF5A5A0079
S9030000FC
