S01600004C414233615F67726170686963732E73726563FB
S11300000C942A000C943F000C943F000C943F0085
S11300100C943F000C943F000C943F000C943F0060
S11300200C943F000C943F000C943F000C943F0050
S11300300C943F000C943F000C943F000C943F0040
S11300400C943F000C943F000C943F000C943F0030
S11300500C943F0011241FBECFE5D8E0DEBFCDBF16
S113006014E0A0E6B0E0E8E2F4E002C005900D92EE
S1130070A036B107D9F70E94DA010C9412020C944D
S1130080000062BB9FEF91BB2BB3813011F090E86D
S113009001C090E4842F822B892B8BBB8BB3442328
S11300A011F09BEF01C09AEF89238BBB0000000085
S11300B00000D99A000000000000000000000000C9
S11300C000000000D99800008BB38F738BBBDA9AC1
S11300D011BA089511BA9BB39460813011F080E88D
S11300E001C080E4962B982B9BBB9BB381E06111EC
S11300F080E0809589238BBB000000000000D99A22
S113010000000000000000000000000000000000EB
S113011080B300009BB39F739BBBD9980895CF9382
S1130120C82F6F736064862F809585BB40E08C2F49
S11301300E94410060E08C2F0E946A00CF910895D4
S1130140CF93C82F6770686B40E00E94410060E065
S11301508C2F0E946A00CF910895CF93C82F606CB2
S113016040E00E94410060E08C2F0E946A00CF9121
S1130170089560E00E946A0008951F93CF93DF936F
S1130180D82F60E00E94AD0010E0612F8D2F0E94F7
S1130190A00060E08D2F0E948F00C0E441E060E089
S11301A08D2F0E944100C150C9F760E08D2F0E943D
S11301B06A001F5F183049F7DF91CF911F910895AE
S11301C0CF931BBA11BA8FEF8ABB89E993E00197E9
S11301D0F1F700C0DD9A81E00E94B900C82F82E0E7
S11301E00E94B9008C2B982F909595BB84FF09C071
S11301F000000000000000000000000000000000FB
S1130200EACF8160809585BB60E081E00E94AD000B
S113021060E082E00E94AD00CF91089540E06FE37A
S113022081E00E94410040E06FE382E00E944100CF
S113023081E00E94B900809585BB089581E00E9409
S1130240BD0082E00E94BD0008956F927F928F925C
S11302509F92AF92BF92CF92DF92EF92FF920F9351
S11302601F93CF93DF937C01BB24B394612C712C37
S1130270812C912C60E08B2D0E94AD00C62CD72CD4
S1130280A12C6A2D8B2D0E94A00060E08B2D0E9472
S11302908F008601005C1F4FE601CE0121E0B216FB
S11302A019F020E430E002C0282D392D2E0D3F1D19
S11302B0F901E80FF91F41E060818B2D0E94410094
S11302C02196C017D10749F760E08B2D0E946A0080
S11302D0A39480E8C80ED11C28E0A212D2CFB39414
S11302E083E0B812C7CFDF91CF911F910F91FF9098
S11302F0EF90DF90CF90BF90AF909F908F907F90C2
S11303006F900895FF920F931F93CF93DF93182F4D
S1130310D62F803410F0C2E001C0C1E00D2F069545
S113032006950695602F8C2F0E94A000612F8C2FBC
S11303300E948F0061E08C2F0E946A0061E08C2F84
S11303400E946A00F82E60E08C2F0E946A00602FE1
S11303508C2F0E94A000612F8C2F0E948F00D770D9
S113036061E070E002C0660F771FDA95E2F76F294B
S113037041E08C2F0E94410060E08C2F0E946A00B3
S1130380DF91CF911F910F91FF9008951F93CF9309
S1130390DF93442359F0162FC82FD42FD80F612F81
S11303A08C2F0E948201CF5FCD13F9CFDF91CF91C3
S11303B01F9108958FEF84BB81E085BB0E94E0000C
S11303C00E940E010E941E0166E38FE30E948201D7
S11303D067E380E40E94820168E381E40E94820171
S11303E044E66BE087E00E94C60145E066E18EE3E7
S11303F00E94C60144E66CE087E00E94C60144E620
S113040068E387E00E94C6012FEF8FE398E3215051
S113041080409040E1F700C0000080E690E00E9438
S10B04202501FFCFF894FFCF82
S113042800000000000000C020C000000000000020
S1130438E020202020C00000000080402020204030
S113044800000000E0202020408000000000E020A0
S113045820202000000000E02020202000000000D0
S11304688040202020408000000000E000000000C0
S1130478E000000000E000000000000000E00000D0
S11304880000E0000080402000000000E0000000C0
S11304980000000000000000000000000000000050
S11304A800000000001806050405061800000000F6
S11304B81F111111110F0000000007081010100877
S11304C8000000001F1010100807000000001F1192
S11304D8111111000000001F0101010000000000BB
S11304E807081010120A06000000001F010101018C
S11304F81F000000001F000000000C10100F000077
S113050800001F0201030C10000000001F1010104F
S113051810000000000000000000000000000000BF
S11305280000000000F830C000C030F800000000EF
S1130538F810608000F800000000E01008080810B7
S1130548E000000000F88888887000000000E010CF
S113055808080810E000000000F84848C8483000BF
S1130568000000304848888810000000000808F897
S1130578080800000000F800000000F8000000006F
S11305881860800080601800000018E0008070087F
S1130598708000E018000000000000000000000067
S11305A80000000000070001060100070000000029
S11305B8070000010207000000000102040404020D
S11305C80100000000070000000000000000010214
S11305D804050506050000000007000000030400E8
S11305E800000002040404040300000000000007E3
S11305F800000000000003040404040300000000D9
S113060800000106010000000000000106010000CE
S113061800010601000000000000000000000000C6
S1130628000000000002CC3030CC020000000002C0
S11306380C10E0100C02000000000082621A06028E
S1130648000000000804FE000000000000048242CC
S1130658221C0000000084021212EC00000000605A
S11306685844FE400000000098161212E2000000F0
S113067800FC121212E40000000002C2320E020052
S1130688000000EC121212EC000000009C2222224E
S1130698FC00000000000000000000000000000052
S11306A8000000000001808080000100000080003C
S11306B800000100000080808080810101010101A7
S11306C8000000800080010000000080808101019A
S11306D80101000080800001018100000000000089
S11306E8000081000000000000018181000000007A
S11306F800000181010000000000008100000000EA
S11307088000000001010100000000000001010157
S113071800000000000000000000000000000000CD
S113072800000000003F4040403F000000005F0020
S11307380000007C83394442227C46219E0000004C
S113074800721E731E13000000002344FF44390086
S1130758000000030444330C334848300000000010
S11307680403000304000000304B444C33500000E1
S11307780000050305000000007E81000000000061
S113078800817E000000001010100000000008081E
S11307983E080800000000000000000000000000FF
S11307A8000000000000000000000000000000003D
S11307B80000000000010101010101010000000026
S11307C8000000000000000000000000000000001D
S11307D8000000000000000000000000000000000D
S11307E800000000000000000000000000000000FD
S11307F800000000000000000000000100000000EC
S113080801000000000000000000000000000000DB
S113081800000000000000000000000000000000CC
S9030000FC
