S01600005446545F4C43445F4452495645522E73726563C3
S11300000C942A000C9434000C9434000C943400A6
S11300100C9434000C9434000C9434000C9434008C
S11300200C9434000C9434000C9434000C9434007C
S11300300C9434000C9434000C9434000C9434006C
S11300400C9434000C9434000C9434000C9434005C
S11300500C94340011241FBECFE5D8E0DEBFCDBF21
S11300600E9436000C941E010C9400000E94B00003
S1130070FFCF85BB83E188BB000092E198BB000001
S113008088BB0000089585BB82E188BB000083E142
S113009088BB0000089521E128BB00000000000097
S11300A00000000023B3FC01208383E188BB00002F
S11300B0000000000895EF92FF920F931F93CF93D7
S11300C0DF937B018A019BE198BB0E9439000115F3
S11300D0110549F0E7010E0D1F1D89910E9443008F
S11300E0C017D107D1F78BE188BBDF91CF911F9166
S11300F00F91FF90EF900895CF92DF92EF92FF92CD
S11301000F931F93CF93DF931F92CDB7DEB77B017D
S11301106A019BE198BB0E94390014BA15BACE015A
S113012001960E944B00C114D10459F08701EC0CD4
S1130130FD1CC8010E944B000F5F1F4F0E151F05C9
S1130140C1F78FEF84BB8BE188BBC6010F90DF91B1
S1130150CF911F910F91FF90EF90DF90CF90089572
S1130160CF93DF9300D0CDB7DEB78FEF8ABB9EEF7E
S11301709BBB2FEF39E698E1215030409040E1F7E6
S113018000C0000084BB87BB8BE188BB2FEF37EA3C
S113019081E6215030408040E1F700C000008DEF3F
S11301A08BBB9FEF29E638E1915020403040E1F7C6
S11301B000C0000086E6898341E050E0BE016F5F25
S11301C07F4F8AE30E945B000EEF1FEF40E050E098
S11301D060E070E089E20E945B000BBB8FEF99E660
S11301E028E1815090402040E1F700C0000040E049
S11301F050E060E070E088E20E945B001BBB3FEFD0
S113020089E698E1315080409040E1F700C0000059
S11302101A8241E050E0BE016E5F7F4F8CE00E9485
S11302207C008A8180958BBB2FEF39E688E12150D1
S113023030408040E1F700C00000C8CFF894FFCF01
S9030000FC
