S01300004C414230325F64656275672E737265637A
S11300000C942A000C9434000C9434000C943400A6
S11300100C9434000C9434000C9434000C9434008C
S11300200C9434000C9434000C9434000C9434007C
S11300300C9434000C9434000C9434000C9434006C
S11300400C9434000C9434000C9434000C9434005C
S11300500C94340011241FBECFE5D8E0DEBFCDBF21
S11300600E9436000C944C000C9400001ABA8FEFD6
S113007087BB80E0982F909598BB2FEF3FE995E0E0
S1130080215030409040E1F700C0000099B3990F2F
S10F0090990B8F5F8923EECFF894FFCF0B
S9030000FC
