S00F000052544F535F48482E73726563DE
S11300000C942A000C9440010C9447000C94470073
S11300100C9447000C9447000C9447000C94CF03B5
S11300200C9447000C9447000C9447000C94470030
S11300300C9447000C9447000C9447000C94470020
S11300400C9447000C9447000C9447000C94470010
S11300500C94470011241FBECFE5D8E0DEBFCDBF0E
S113006010E0A0E6B0E0E2E0F5E102C005900D92F8
S1130070AC37B107D9F726E0ACE7B0E001C01D9278
S1130080A439B207E1F70E9479010C947F0A0C9419
S113009000008FEF84BB85BB0895809585BB0895D0
S11300A01ABA089589B380950895883060F499B395
S11300B021E030E002C0220F331F8A95E2F7892F36
S11300C080958223089580E008950F931F938B01F8
S11300D09C010E561109210931090339114C2140A3
S11300E0310568F52BEF240F243048F520E22BB9B5
S11300F028E12AB950E045505109440F551F406882
S113010040BDDC01CB01880F991FAA1FBB1F880FBC
S1130110991FAA1FBB1F9C01AD01220F331F441F4F
S1130120551F220F331F441F551F60E070E488E3FE
S113013090E00E943E0A2150310930BD29B91F9137
S11301400F9108950E945200882314F40C94001E09
S113015088EE93E00E940909F5CF80E00E945500E3
S1130160882391F120E040E157E260E070E0809163
S11301707F00909180000E94B405882329F180912A
S11301807E008F5F80937E0020E048EE53E06EE7B0
S113019070E080917C0090917D000E94EE0420E04C
S11301A040E050E060E070E080917F00909180003A
S11301B00E94EE0404C084E690E00E94090980E0F5
S11301C00E9455008111F7CF84E690E00E9409094E
S11301D0C4CF81E00E945500882391F120E040E1E2
S11301E057E260E070E080917F00909180000E946F
S11301F0B405882329F180917E00815080937E008C
S113020020E048EE53E06EE770E080917C0090912E
S11302107D000E94EE0420E040E050E060E070E0E9
S113022080917F00909180000E94EE0404C084E6D7
S113023090E00E94090981E00E9455008111F7CFE6
S113024084E690E00E940909C4CFCF93DF931F9204
S1130250CDB7DEB7198280E00E944D0020E048EE61
S113026053E0BE016F5F7F4F80917C0090917D00D1
S11302700E94B405882391F389810E944D00EECF3A
S11302801F920F920FB60F9211242F933F934F9307
S11302905F936F937F938F939F93AF93BF93EF93EA
S11302A0FF93CF93DF931F92CDB7DEB7198220E07F
S11302B041E050E0BE016F5F7F4F80917C009091E0
S11302C07D000E94880510927E000F90DF91CF91EF
S11302D0FF91EF91BF91AF919F918F917F916F911A
S11302E05F914F913F912F910F900FBE0F901F90F0
S11302F01895DA988A9885B7836085BF8BB7806430
S11303008BBF0E9449000E94500048E060E072ECFC
S113031081E090E00E946500A12CB12CC12CD12C6D
S1130320E12CF12C00E020E030E045E550E062E60D
S113033070E082EA90E00E949F0643E060E081E082
S11303400E949E049093800080937F00009739F070
S113035020E040E050E060E070E00E94EE0440E005
S113036061E08AE00E949E0490937D0080937C006B
S1130370A12CB12CC12CD12CE12CF12C00E020E0DB
S113038030E045E550E06AE670E08DEA90E00E94D6
S11303909F0620E030E045E550E06EE670E089EE2F
S11303A090E00E949F0620E030E045E550E062E7DF
S11303B070E085E291E00E949F060E948E07FFCFC5
S11303C0FC010396928381832FEF3FEF34832383D1
S11303D0968385839087878310820895FC01118614
S11303E010860895CF93DF93FC01DB0121813281D4
S11303F0E9018A819B8113969C938E931297818144
S1130400928115969C938E9314978A819B81EC011B
S11304107D836C83E9017B836A837283618319968C
S1130420FC93EE93189780818F5F8083DF91CF9147
S11304300895CF93DF93EB01488159814F3F2FEF0C
S1130440520731F4DC011796ED91FC91189717C00F
S1130450FC013396DC0115962D913C911697D90138
S11304602D913C914217530750F00280F381E02D07
S1130470A281B3812D913C9142175307B0F7A28119
S1130480B381BB83AA831596DC93CE931497FD8323
S1130490EC83D383C28399878887FC0120812F5FF3
S11304A02083DF91CF910895FC01A281B3818481DF
S11304B0958115969C938E931497A481B58182811E
S11304C0938113969C938E931297A085B185119670
S11304D08D919C9112978E179F0731F48481958199
S11304E012969C938E931197118610868C9181504D
S11304F08C93089531E1FC013083319722E220830B
S11305003197A3E3A0833197608331977083319748
S11305101082319760E8608331971082319762E0EE
S11305206083319763E06083319764E0608331973F
S113053065E06083319766E06083319767E06083AC
S1130540319768E06083319769E06083319760E1B7
S1130550608331973083319732E13083319733E1CF
S11305603083319734E13083319735E130833197EB
S113057036E13083319737E13083319738E1308386
S1130580319739E13083319730E23083319731E26A
S1130590308331972083319723E22083319740833E
S11305A031975083319726E22083319727E22083C5
S11305B0319728E22083319729E22083319720E381
S11305C02083319721E32083869708951BBC88E319
S11305D08ABD8BE08EBD89B7806189BFA0919206E8
S11305E0B0919306CD91CDBFDD91DEBFFF91EF9128
S11305F0DF91CF91BF91AF919F918F917F916F9137
S11306005F914F913F912F911F910F91FF90EF9028
S1130610DF90CF90BF90AF909F908F907F906F901E
S11306205F904F903F902F901F900F900FBE0F90B0
S1130630089581E008950F920FB6F8940F921F92D7
S113064011242F923F924F925F926F927F928F92DA
S11306509F92AF92BF92CF92DF92EF92FF920F934D
S11306601F932F933F934F935F936F937F938F9336
S11306709F93AF93BF93CF93DF93EF93FF93A09197
S11306809206B09193060DB60D920EB60D920E948D
S11306902909A0919206B0919306CD91CDBFDD9129
S11306A0DEBFFF91EF91DF91CF91BF91AF919F9109
S11306B08F917F916F915F914F913F912F911F91F6
S11306C00F91FF90EF90DF90CF90BF90AF909F90ED
S11306D08F907F906F905F904F903F902F901F90DE
S11306E00F900FBE0F9008950F920FB6F8940F92CB
S11306F01F9211242F923F924F925F926F927F929A
S11307008F929F92AF92BF92CF92DF92EF92FF921D
S11307100F931F932F933F934F935F936F937F9305
S11307208F939F93AF93BF93CF93DF93EF93FF93F5
S1130730A0919206B09193060DB60D920EB60D924D
S11307400E94BF070E942909A0919206B0919306C6
S1130750CD91CDBFDD91DEBFFF91EF91DF91CF91C0
S1130760BF91AF919F918F917F916F915F914F91C5
S11307703F912F911F910F91FF90EF90DF90CF90B9
S1130780BF90AF909F908F907F906F905F904F90AD
S11307903F902F901F900F900FBE0F9008950E94CE
S11307A074031895CF93DF93EC010E94B90720914D
S11307B0810030918200CE01820F931F8C3D45E071
S11307C0940758F42817390758F4E901CD57DF4F37
S11307D0909382008093810005C0C0E0D0E002C005
S11307E0C0E0D0E00E948308CE01DF91CF9108954C
S11307F00895CF93DF93EC018C8D8823A9F14111E7
S113080017C0482F50E08C819D810E94600A2C8D76
S11308108C819D81820F911D9D838C832A813B81D4
S11308208217930708F1888199819D838C831CC06A
S1130830482F50E08E819F810E94600A8C8D90E049
S11308409195819591092E813F81280F391F3F830E
S11308502E83488159812417350730F42A813B813E
S1130860820F931F9F838E838A8D8F5F8A8FDF9180
S1130870CF910895FC01808191810097A1F0448D6E
S113088050E026813781240F351F37832683A281C8
S1130890B3812A173B0710F097838683CB016681C7
S11308A077810E94600A08950F931F93CF93DF937B
S11308B0EC010FB6F8940F928E8D1816B4F4898952
S11308C0811105C012C09989911104C00EC08E0116
S11308D00F5E1F4FC8010E94B30981110E943A0A9A
S11308E09E8D91509E8F191674F38FEF8E8F0F90FB
S11308F00FBE0FB6F8940F928D8D1816B4F4888538
S1130900811105C012C09885911104C00EC08E01DA
S1130910085F1F4FC8010E94B30981110E943A0A5F
S11309209D8D91509D8F191674F38FEF8D8F0F90BD
S11309300FBEDF91CF911F910F910895CF92DF9257
S1130940EF92FF920F931F93CF93DF938823D1F1FC
S1130950E62EF82E8FE190E00E94D203EC01892B61
S113096099F1CE2CD12CFC9C8001FD9C100D1124FE
S1130970C80101960E94D203998388830097E1F00D
S11309809C01200F311F3B832A831A8E9D838C8305
S11309900C191D09080F191F1F830E83FB8EEC8E83
S11309A08FEF8D8F8E8FCE0108960E94E001CE01CD
S11309B041960E94E00108C0CE010E94F803C0E005
S11309C0D0E002C0C0E0D0E0CE01DF91CF911F9112
S11309D00F91FF90EF90DF90CF9008959F92AF9288
S11309E0BF92CF92DF92EF92FF920F931F93CF9318
S11309F0DF9300D000D01F92CDB7DEB78C016B011E
S1130A005D834C83922EB12CAA24A3947C0188E0AC
S1130A10E80EF11C0FB6F8940F92F801328D938D05
S1130A203917A8F4492DB601C8010E94F903F80149
S1130A308189882341F0C80141960E94B30981301D
S1130A4011F40E941B030F900FBE81E050C0EC8193
S1130A50FD81EF2B21F40F900FBE80E048C0B11050
S1130A6005C0CE0101960E94F809BA2C0F900FBE62
S1130A700E94B9070FB6F8940F92F801858D8F3F45
S1130A8009F4158EF801868D8F3F09F4168E0F90A8
S1130A900FBEBE016C5F7F4FCE0101960E94030A18
S1130AA081111FC00FB6F8940F92F801928D0F9028
S1130AB00FBE838D98130FC06C817D81C7010E9486
S1130AC09509C8010E9454040E9483088111A2CF91
S1130AD00E941B039FCFC8010E9454040E948308F4
S1130AE099CFC8010E9454040E94830880E00F90AB
S1130AF00F900F900F900F90DF91CF911F910F9156
S1130B00FF90EF90DF90CF90BF90AF909F900895AB
S1130B100F931F93CF93DF938A01FC01528D338D82
S1130B205317C0F4422FEC010E94F9038E8D8F3FBE
S1130B3069F48989882381F0CE0141960E94B30922
S1130B40882361F081E0F801808309C08F5F8E8F74
S1130B5081E005C080E003C081E001C081E0DF9155
S1130B60CF911F910F9108959F92AF92BF92CF9210
S1130B70DF92EF92FF920F931F93CF93DF9300D0F6
S1130B8000D01F92CDB7DEB78C016B015D834C831F
S1130B90922EB12CAA24A3947C0181E1E80EF11CCD
S1130BA00FB6F8940F92F801928D992349F1E680DB
S1130BB0F780B601C8010E943A04911010C0F801F0
S1130BC0828D8150828F80858823B1F0C801089678
S1130BD00E94B309813081F40E941B030DC0F80107
S1130BE0F782E6828189882339F0C80141960E9400
S1130BF0B30981110E941B030F900FBE81E04FC007
S1130C004C815D81452B21F40F900FBE80E047C0DD
S1130C10B11005C0CE0101960E94F809BA2C0F90BC
S1130C200FBE0E94B9070FB6F8940F92F801858D94
S1130C308F3F09F4158EF801968D9F3F09F4168EA7
S1130C400F900FBEBE016C5F7F4FCE0101960E94D4
S1130C50030A81111EC00FB6F8940F92F801828D19
S1130C600F900FBE81110FC06C817D81C7010E945E
S1130C709509C8010E9454040E948308811190CFF1
S1130C800E941B038DCFC8010E9454040E94830854
S1130C9087CFC8010E9454040E94830880E00F900B
S1130CA00F900F900F900F90DF91CF911F910F91A4
S1130CB0FF90EF90DF90CF90BF90AF909F900895FA
S1130CC0C9E8D6E088818230E8F30E941B03FACF9A
S1130CD0CF93DF93EC01E0919206F0919306938316
S1130CE082838091670690916806C817D90768F4D3
S1130CF060919206709193068091730690917406A8
S1130D006E5F7F4F0E94190217C060919206709126
S1130D10930680917506909176066E5F7F4F0E94D0
S1130D2019028091600090916100C817D90720F4DE
S1130D30D0936100C0936000DF91CF9108954F92EA
S1130D405F926F927F928F929F92AF92BF92CF9257
S1130D50DF92EF92FF920F93CF93DF935C014B01ED
S1130D603A01290181E290E00E94D203EC01892B2F
S1130D7009F4A5C0C114D10409F09DC0C3010E94A7
S1130D80D203988F8F8B009721F4CE010E94F80331
S1130D9096C0A30165EA70E00E94690A930121509C
S1130DA031098F89988D3C01620E731E48E050E032
S1130DB0B401CE0149960E94700A18A21E8A6E01DF
S1130DC082E0C80ED11CC6010E94EE01CE010C9631
S1130DD00E94EE01D987C88781E090E09D878C87C7
S1130DE0DB8BCA8BA201B501C3010E947A029983ED
S1130DF08883E114F10419F0F701D183C0830FB69D
S1130E00F8940F92809169068F5F809369068091B0
S1130E10920690919306892B49F4D0939306C0933C
S1130E20920680916906813081F44BC080916406FA
S1130E3081110BC0E0919206F09193068689081700
S1130E4020F0D0939306C09392068E899091660603
S1130E50981710F48093660690915F069F5F9093B5
S1130E605F0690916506981710F48093650690E0EC
S1130E709C01220F331F220F331F220F331F820FB7
S1130E80931FB6018757994F0E94F2010F900FBE2E
S1130E9080916406882359F0E0919206F0919306BC
S1130EA08689801730F40E941B0381E027C081E00B
S1130EB025C081E023C0D88ECF8AC6016ACF8FEFC8
S1130EC01DC089E896E00E94E00180E896E00E9457
S1130ED0E00187E796E00E94E0018AE696E00E943E
S1130EE0E00180E896E0909376068093750687E7A4
S1130EF096E09093740680937306A7CFDF91CF9109
S1130F000F91FF90EF90DF90CF90BF90AF909F90A4
S1130F108F907F906F905F904F900895AF92BF92A3
S1130F20CF92DF92EF92FF920F93A12CB12CC12CA0
S1130F30D12CE12CF12C00E020E030E045E550E03C
S1130F4067E770E080E696E00E949F06813049F4EE
S1130F50F8948093640610926806109267060E94C3
S1130F60E6020F91FF90EF90DF90CF90BF90AF908B
S1130F700895809163068F5F8093630608950F93AD
S1130F801F93CF93DF93809163068111B2C0809148
S1130F9067069091680601969093680680936706A9
S1130FA08091670690916806892B99F58091750662
S1130FB090917606209173063091740630937606EC
S1130FC0209375069093740680937306809160064F
S1130FD08F5F80936006E0917506F09176068081BC
S1130FE0811107C08FEF9FEF9093610080936000A1
S1130FF010C0E0917506F09176060580F681E02D2B
S11310000680F781E02D8281938190936100809323
S1131010600020916706309168068091600090918D
S113102061002817390708F469C0E0917506F0914A
S113103076068081882399F0E0917506F091760612
S11310400580F681E02DC681D7818A819B8120911C
S113105067063091680628173907F8F419C08FEF2E
S11310609FEF909361008093600048C0E091750603
S1131070F09176060580F681E02DC681D7818A81BC
S11310809B8120916706309168062817390728F458
S1131090909361008093600031C08E010E5F1F4FFA
S11310A0C8010E9454028C899D89892B21F0CE01AC
S11310B00C960E9454022E8980916506821710F4C2
S11310C02093650630E0C901880F991F880F991F86
S11310D0880F991F820F931FB8018757994F0E9459
S11310E0F201E0917506F091760680818111BECF00
S11310F0B6CF809162068F5F80936206DF91CF91B5
S11311001F910F910895CF92DF92EF92FF920F9368
S11311101F93CF93DF930FB6F8940F9280916306D9
S113112081508093630680916306811164C080912D
S11311306906811132C062C0D7011596ED91FC9108
S11311401697C681D781CE010C960E9454028E0157
S11311500E5F1F4FC8010E9454022E8980916506BC
S1131160821710F42093650630E0C901880F991F97
S1131170880F991F880F991F820F931FB8018757F3
S1131180994F0E94F201E0919206F09193069E8994
S11311908689981758F0DC2C09C0D12C0F2EFAE65A
S11311A0EF2EF6E0FF2EF02DCC24C394F7018081BE
S11311B08111C2CF80916206882381F080916206FA
S11311C0882399F00E94BF07809162068150809322
S11311D06206809162068111F5CF07C0F1E0DF1647
S11311E021F080916106813041F4109261060E94E1
S11311F01B0381E003C080E001C080E00F900FBEBC
S1131200DF91CF911F910F91FF90EF90DF90CF90DE
S11312100895CF93DF93EC01892BB1F00E94B907B5
S11312208091670690916806C80FD91F8091920635
S11312309091930602960E945402CE010E94680681
S11312400E948308811102C00E941B03DF91CF9189
S1131250089580916306811113C08091650690E022
S1131260FC01EE0FFF1FEE0FFF1FEE0FFF1F8E0F8F
S11312709F1FFC01E757F94F8081882329F01BC089
S113128081E0809361060895809165068150809382
S113129065068091650690E0FC01EE0FFF1FEE0FDE
S11312A0FF1FEE0FFF1F8E0F9F1FFC01E757F94F23
S11312B08081882349F38091650690E09C01220F88
S11312C0331F220F331F220F331F280F391FD90159
S11312D0A757B94F1196ED91FC9112970280F381B3
S11312E0E02D1296FC93EE9311972457394FE21791
S11312F0F30729F422813381FD0132832183FC0128
S1131300EE0FFF1FEE0FFF1FEE0FFF1F8E0F9F1F2D
S1131310FC01E757F94F0180F281E02D8681978126
S113132090939306809392060895CF93DF93EB01F5
S11313302091920630919306B901645F7F4F0E9419
S11313401902809192069091930602960E9454028B
S113135080916706909168068C0F9D1F0E94680615
S1131360DF91CF9108950F931F93CF93DF93DC0107
S11313701596ED91FC911697C681D7818E01045F75
S11313801F4FC8010E9454028091630681111CC042
S11313900A501109C8010E9454022E8980916506E1
S11313A0821710F42093650630E0C901880F991F55
S11313B0880F991F880F991F820F931FB8018757B1
S11313C0994F0E94F20105C0B8018AE696E00E9496
S11313D0F201E0919206F091930681E02E899689BC
S11313E0291708F480E0DF91CF911F910F910895A0
S11313F020916006FC0120832091670630916806E5
S1131400328321830895FC010FB6F8940F928091E2
S113141060069081981749F080916706909168065C
S11314202181328182179307F8F4809167069091A5
S1131430680641815281DB012D913C911197841BF7
S1131440950B8217930790F4CF01E0916706F09112
S11314506806BF01641B750B261B370B2D933C9349
S11314600E94F80980E003C081E001C081E00F9090
S11314700FBE089581E0809361060895A1E21A2EBB
S1131480AA1BBB1BFD010DC0AA1FBB1FEE1FFF1F24
S1131490A217B307E407F50720F0A21BB30BE40B74
S11314A0F50B661F771F881F991F1A9469F76095BB
S11314B07095809590959B01AC01BD01CF01089575
S11314C0FB01DC0102C001900D9241505040D8F75D
S11314D00895DC0101C06D9341505040E0F7089538
S11314E0FB01DC014150504048F001900D92002076
S11314F0C9F701C01D9241505040E0F70895F89497
S1051500FFCF17
S1131502FFFF426F6F744B65790064656300696E17
S10F151263004C4544440049444C45002F
S9030000FC
