S00F000052544F535F48482E73726563DE
S11300000C942A000C9447000C9447000C9447006D
S11300100C9447000C9447000C9447000C949105F1
S11300200C9447000C9447000C9447000C94470030
S11300300C9447000C9447000C9447000C94470020
S11300400C9447000C9447000C9447000C94470010
S11300500C94470011241FBECFE5D8E0DEBFCDBF0E
S113006010E0A0E6B0E0E2E1FBE102C005900D92F1
S1130070A237B107D9F716E0A2E7B0E001C01D929C
S1130080AF3BB107E1F70E9434010C94870D0C9447
S113009000008FEF84BB85BB0895809585BB0895D0
S11300A0883068F445B321E030E0B90102C0660F3E
S11300B0771F8A95E2F7CB018095842385BB089549
S11300C0883060F445B321E030E0B90102C0660F26
S11300D0771F8A95E2F7CB01842B85BB089588307E
S11300E060F445B321E030E0B90102C0660F771F28
S11300F08A95E2F7CB01842785BB08951ABA08953F
S113010089B380950895883070F449B321E030E0D4
S1130110B90102C0660F771F8A95E2F7CB01942FCD
S113012090958923089580E008950F931F93DC012F
S1130130CB018C019D010E56104020403040033904
S113014051EC150751E0250750E0350760F54530BF
S113015050F1493040F520E22BB928E12AB9242F87
S113016030E025503040220F331F206820BD880F17
S1130170991FAA1FBB1F880F991FAA1FBB1F9C0191
S1130180AD01220F331F441F551F220F331F441F7D
S1130190551F60E070E488E390E00E94010D215057
S11301A0304030BD29B91F910F9108958BB18078EB
S11301B008955F9BFECF8CB108955D9BFECF8CB9F3
S11301C00895CF93DF93EC018881882331F0219641
S11301D00E94DD0089918823D9F7DF91CF9108959A
S11301E0CF93DF93CDB7DEB727970FB6F894DEBF72
S11301F00FBECDBFBE016F5F7F4F4AE050E00E944B
S1130200420DCE0101960E94E10027960FB6F894A4
S1130210DEBF0FBECDBFDF91CF910895CF93DF93A3
S113022000D0CDB7DEB70E94280A9A83898381E083
S11302300E946F00CE01019664EF71E00E94B00B42
S1130240F6CFCF93DF9300D0CDB7DEB70E94280A54
S11302509A83898380E00E946F00CE01019668EE44
S113026073E00E94B00BF6CF0E94490081E291E056
S113027060E670E045E550E020E030E000E0EE2488
S1130280FF24CC24DD24AA24BB240E94F9088EE098
S113029091E065E670E045E550E020E030E00E9442
S11302A0F9080E94F109FFCFAF92BF92CF92DF927B
S11302B0EF92FF920F931F93CF93DF936C01E62E7F
S11302C0F42E8AE190E00E9494058C01009709F4D1
S11302D062C08091720090917300009739F5109379
S11302E0730000937200C5E7D0E0CE010E94790349
S11302F0CE0109960E947903C7E8D0E0CE010E949E
S113030079030F2EF0E9AF2EF0E0BF2EF02DC501DA
S11303100E94790389E990E00E947903D093A300B5
S1130320C093A200B092A500A092A400CE2DE1102B
S1130330C1E0F801118E108EC68BF78AC192D1925A
S11303407F01CF010E948703C8010C960E94870396
S1130350F80111870087138B028B81E090E08C1BDE
S1130360910995878487868990917400981710F471
S11303708093740090E09C01220F331F220F331FDF
S1130380220F331F820F931F8B589F4FB7010E9478
S11303908B0381E001C08FEFDF91CF911F910F910B
S11303A0FF90EF90DF90CF90BF90AF9008950F93A0
S11303B01F93CF93DF938B01C091A600D091A70028
S11303C0C80FD91F809172009091730002960E9409
S11303D0F103E0917200F0917300D383C2838091A2
S11303E0A6009091A700C817D90750F4BF016E5F0B
S11303F07F4F8091A4009091A5000E94B40309C08E
S1130400BF016E5F7F4F8091A2009091A3000E9474
S1130410B4030115110549F06091720070917300E5
S1130420645F7F4FC8010E94B403DF91CF911F9195
S11304300F910895CF92DF92EF92FF920F931F9343
S1130440CF93DF93809199008823B9F10F2EFEE9B1
S1130450EF2EF0E0FF2EF02D0F2EF9E9CF2EF0E075
S1130460DF2EF02DF894D701ED91FC91C681D78150
S1130470CE010C960E94F10378948E010E5F1F4FFB
S1130480C8010E94F1038E8990917400981710F4AA
S11304908093740090E09C01220F331F220F331FBE
S11304A0220F331F820F931F8B589F4FB8010E9456
S11304B08B03F60180818823A9F60E94280A2091E3
S11304C0A8003091A900821B930B9093AB008093FA
S11304D0AA0074C02091A6003091A7002F5F3F4F5F
S11304E03093A7002093A60001979093AB008093CC
S11304F0AA002115310581F48091A2009091A300F6
S11305002091A4003091A5003093A3002093A20071
S11305109093A5008093A400E091A200F091A30021
S11305208081882309F44AC00580F681E02DC681C4
S1130530D7812A813B818091A6009091A7008217E0
S1130540930778F43BC00580F681E02DC681D781FE
S11305502A813B818091A6009091A700821793077E
S113056068F1F8948E010E5F1F4FC8010E94F103D9
S11305708C899D89009721F0CE010C960E94F1038D
S113058078948E8990917400981710F48093740075
S113059090E09C01220F331F220F331F220F331FC1
S11305A0820F931F8B589F4FB8010E948B03E091D9
S11305B0A200F091A3008081882329F68091AA00EB
S11305C09091AB00009709F085CF8091A60090919F
S11305D0A7009093A9008093A80020917400822F13
S11305E090E0FC01EE0FFF1FEE0FFF1FEE0FFF1F49
S11305F0E80FF91FEB58FF4F30813323D9F422233E
S113060031F447C0222319F42093740042C02150CE
S1130610822F90E0FC01EE0FFF1FEE0FFF1FEE0F85
S1130620FF1FE80FF91FEB58FF4F3081332351F3BD
S113063020937400FC01EE0FFF1FEE0FFF1FEE0F5F
S1130640FF1F8E0F9F1FFC01EB58FF4FA181B2814A
S113065012960D90BC91A02DB283A183CF01039675
S1130660A817B90731F412968D919C911397928330
S113067081830180F281E02DA681B781B09373005C
S1130680A0937200ED91FC911197CD0157966C9156
S11306900995DF91CF911F910F91FF90EF90DF901B
S11306A0CF9008950F931F93CF93DF93DC0115969A
S11306B0ED91FC91169706811781E8012C96CE01E5
S11306C00E94F10389E990E0BE010E948B03E0914E
S11306D07200F091730081E0D80156962C915697E0
S11306E09689291708F480E0DF91CF911F910F912B
S11306F00895FC010396928381832FEF3FEF3483A7
S11307002383968385839087878310820895FC01D1
S1130710118610860895CF93DF93EC01FB01898144
S11307209A81DC0112962D913C9113973383228395
S113073029813A813583248312962D913C91139714
S1130740D90115967C936E931497DC0113967C93D0
S11307506E9312977A836983D187C08788818F5F6C
S11307608883DF91CF910895CF93DF93AC01EB01A0
S1130770288139818FEF2F3F380721F4FA01A781AF
S1130780B08518C0DA011396FA0185819681FC01BF
S1130790808191812817390768F012960D90BC91D9
S11307A0A02D1296ED91FC911397808191812817C9
S11307B0390798F71296ED91FC911397FB83EA831E
S11307C0D583C483BD83AC831396DC93CE931297F5
S11307D059874887FA0180818F5F8083DF91CF91A9
S11307E00895FC01A281B3818481958115969C931F
S11307F08E931497A481B5818281938113969C93DF
S11308008E931297A085B18511968D919C91129724
S11308108E179F0731F48481958112969C938E9351
S11308201197118610868C9181508C93089521E143
S1130830FC012083319732E23083FC013297A3E339
S1130840A083FC0133976083FC0134977083FC011F
S113085035971082FC01369760E86083FC01379776
S11308601082FC01389762E06083FC01399763E0F1
S11308706083FC013A9764E06083FC013B9765E088
S11308806083FC013C9766E06083FC013D9767E070
S11308906083FC013E9768E06083FC013F9769E058
S11308A06083FC01709760E16083FC017197208391
S11308B0FC01729722E12083FC01739723E12083DA
S11308C0FC01749724E12083FC01759725E12083C2
S11308D0FC01769726E12083FC01779727E12083AA
S11308E0FC01789728E12083FC01799729E1208392
S11308F0FC017A9720E22083FC017B9721E220838C
S1130900FC017C973083FC017D9723E22083FC016A
S11309107E974083FC017F975083FC01B09726E2C9
S11309202083FC01B19727E22083FC01B29728E2DF
S11309302083FC01B39729E22083FC01B49720E3D0
S11309402083FC01B59721E32083869708951BBC7F
S113095088E38ABD8BE08EBD89B7806189BFA09191
S11309608A06B0918B06CD91CDBFDD91DEBFFF919C
S1130970EF91DF91CF91BF91AF919F918F917F9133
S11309806F915F914F913F912F911F910F91FF9024
S1130990EF90DF90CF90BF90AF909F908F907F901B
S11309A06F905F904F903F902F901F900F900FBECD
S11309B00F90089581E0089508950F920FB6F8946A
S11309C00F921F9211242F923F924F925F926F9237
S11309D07F928F929F92AF92BF92CF92DF92EF92CB
S11309E0FF920F931F932F933F934F935F936F93B4
S11309F07F938F939F93AF93BF93CF93DF93EF93A3
S1130A00FF93A0918A06B0918B060DB60D920EB697
S1130A100D920E94FA0BA0918A06B0918B06CD919B
S1130A20CDBFDD91DEBFFF91EF91DF91CF91BF91FB
S1130A30AF919F918F917F916F915F914F913F9172
S1130A402F911F910F91FF90EF90DF90CF90BF9067
S1130A50AF909F908F907F906F905F904F903F905A
S1130A602F901F900F900FBE0F9008950F920FB606
S1130A70F8940F921F9211242F923F924F925F92FB
S1130A806F927F928F929F92AF92BF92CF92DF929A
S1130A90EF92FF920F931F932F933F934F935F9384
S1130AA06F937F938F939F93AF93BF93CF93DF9372
S1130AB0EF93FF93A0918A06B0918B060DB60D9229
S1130AC00EB60D920E943A0A0E94FA0BA0918A0671
S1130AD0B0918B06CD91CDBFDD91DEBFFF91EF913B
S1130AE0DF91CF91BF91AF919F918F917F916F9142
S1130AF05F914F913F912F911F910F91FF90EF9034
S1130B00DF90CF90BF90AF909F908F907F906F9029
S1130B105F904F903F902F901F900F900FBE0F90BB
S1130B2008950E94360518950F931F93CF93DF9372
S1130B30EC010E94220A0091AC001091AD00C00F9C
S1130B40D11F85E0CC3DD80750F40C171D0750F495
S1130B5002551F4FD093AD00C093AC0005C000E018
S1130B6010E002C000E010E00E94000B802F912FE3
S1130B70DF91CF911F910F91089508951092AD00C8
S1130B801092AC0008952091AC003091AD008CED32
S1130B9095E0821B930B0895CF93DF93DC01CD91F5
S1130BA0DC911197209721F15C964C915C971696F5
S1130BB02D913C911797240F311D17963C932E933A
S1130BC016971296ED91FC9113972E173F0720F07C
S1130BD01796DC93CE93169716963C911697179614
S1130BE02C91862F972F632F722F50E00E94230D94
S1130BF0DF91CF910895CF93DF93EC012C8D2223C5
S1130C00A9F14423B9F48C819D81422F50E00E94C4
S1130C10230D2C8D8C819D81820F911D9D838C834E
S1130C202A813B818217930708F1888199819D83EA
S1130C308C831CC08E819F81422F50E00E94230D23
S1130C404C8D50E0509541955F4F8E819F81840F6C
S1130C50951F9F838E83288139818217930730F4EF
S1130C608A819B81480F591F5F834E838A8D8F5FD2
S1130C708A8FDF91CF9108950F931F93CF93DF93C2
S1130C80EC010FB6F8940F928E8D1816BCF4898976
S1130C90882329F413C08989882321F40FC08E0185
S1130CA00F5E1F4FC8010E94740C882311F00E942C
S1130CB0FD0C8E8D81508E8F18166CF38FEF8E8FF6
S1130CC00F900FBE0FB6F8940F928D8D1816BCF4CA
S1130CD08885882329F413C08885882321F40FC0CC
S1130CE08E01085F1F4FC8010E94740C882311F005
S1130CF00E94FD0C8D8D81508D8F18166CF38FEF33
S1130D008D8F0F900FBEDF91CF911F910F9108959A
S1130D10AF92BF92CF92DF92EF92FF920F931F9305
S1130D20CF93DF93F82EE62E882309F446C08FE193
S1130D3090E00E9494058C01009709F441C0CF2CE7
S1130D40DD24AE2CBB24CA9CE001CB9CD00DDA9CE4
S1130D50D00D1124CE0101960E949405AC01F80136
S1130D6091838083009719F1C80FD91FD383C2835D
S1130D70128E95838483C6010197A89E9001A99E33
S1130D80300DB89E300D1124240F351F3783268370
S1130D90F38EE48E8FEF858F868FC80108960E94AC
S1130DA07903C80141960E947903C8010BC0C801A8
S1130DB00E94BD0580E090E005C080E090E002C0A4
S1130DC080E090E0DF91CF911F910F91FF90EF9021
S1130DD0DF90CF90BF90AF9008958F929F92BF9273
S1130DE0CF92DF92EF92FF920F931F93CF93DF93F3
S1130DF000D000D00F92CDB7DEB78C014B015D83DC
S1130E004C83B22EFF24EE24E394CC24DD24689496
S1130E10C3F8C80ED91E0FB6F8940F92F801928D3C
S1130E20838D9817A8F4C801B4014B2D0E94FB05CB
S1130E30F8018189882341F0C80141960E94740C0D
S1130E40813011F40E94DD040F900FBE81E052C086
S1130E508C819D81009721F40F900FBE80E04AC0E1
S1130E60FF2029F4CE0101960E94BC0CFE2C0F90A9
S1130E700FBE0E94220A0FB6F8940F92F801858DD6
S1130E808F3F09F4158EF801868D8F3F09F4168E75
S1130E900F900FBECE010196BE016C5F7F4F0E9482
S1130EA0C70C882309F50FB6F8940F92F801928DB8
S1130EB00F900FBEF801838D981781F46C817D81AA
S1130EC0C6010E94570CC8010E943C060E94000BF8
S1130ED0882309F0A0CF0E94DD049DCFC8010E94A1
S1130EE03C060E94000B97CFC8010E943C060E945A
S1130EF0000B80E00F900F900F900F900F90DF91F8
S1130F00CF911F910F91FF90EF90DF90CF90BF9002
S1130F109F908F9008950F931F93CF93DF93EC01CD
S1130F208A019A8D8B8D9817C0F4CE01422F0E94AE
S1130F30FB058E8D8F3F69F48989882381F0CE016A
S1130F4041960E94740C882361F081E0F80180834B
S1130F5009C08F5F8E8F81E005C080E003C081E00F
S1130F6001C081E0DF91CF911F910F9108958F927D
S1130F709F92BF92CF92DF92EF92FF920F931F93B3
S1130F80CF93DF9300D000D00F92CDB7DEB78C01A2
S1130F904B015D834C83B22EFF24EE24E3940F2E89
S1130FA0F1E1CF2EDD24F02DC80ED91E0FB6F89432
S1130FB00F92F801828D882351F1E680F780C801F1
S1130FC0B4010E94CC05BB2081F4F801828D8150CC
S1130FD0828F80858823B9F0C80108960E94740C1A
S1130FE0813089F40E94DD040EC0F801F782E682A4
S1130FF08189882341F0C80141960E94740C88239A
S113100011F00E94DD040F900FBE81E050C08C816E
S11310109D81009721F40F900FBE80E048C0FF200F
S113102029F4CE0101960E94BC0CFE2C0F900FBE39
S11310300E94220A0FB6F8940F92F801858D8F3F13
S113104009F4158EF801868D8F3F09F4168E0F90E2
S11310500FBECE010196BE016C5F7F4F0E94C70C8C
S11310608823F9F40FB6F8940F92F801828D0F904B
S11310700FBE882381F46C817D81C6010E94570CC8
S1131080C8010E943C060E94000B882309F08ECF01
S11310900E94DD048BCFC8010E943C060E94000B15
S11310A085CFC8010E943C060E94000B80E00F908F
S11310B00F900F900F900F90DF91CF911F910F9190
S11310C0FF90EF90DF90CF90BF909F908F90089506
S11310D00F931F93CF93DF93EC018A018A8D8823AA
S11310E0D1F0CE010E94CC058A8D81508A8F8D8DDE
S11310F08F3F69F48885882381F0CE0108960E9489
S1131100740C882361F081E0F801808309C08F5F4B
S11311108D8F81E005C080E003C081E001C081E0E3
S1131120DF91CF911F910F9108950FB6F8940F920C
S1131130FC01828D0F900FBE0895FC01828D0895ED
S1131140CF93DF93EC01888199810E94BD05CE0184
S11311500E94BD05DF91CF910895FC01928D81E03D
S1131160911180E00895FC01228D81E0938D291373
S113117080E00895CF93DF93EC01E0918A06F0912B
S11311808B06938382838091920690919306C8176D
S1131190D90768F4809195069091960660918A0625
S11311A070918B066E5F7F4F0E94B40317C08091CD
S11311B097069091980660918A0670918B066E5FEF
S11311C07F4F0E94B40380916F0090917000C81704
S11311D0D90720F4D0937000C0936F00DF91CF91B2
S11311E00895CBE9D6E088818230E8F30E94DD04DB
S11311F0FACF4F925F926F927F928F929F92AF92AB
S1131200BF92CF92DF92EF92FF920F93CF93DF932F
S11312102C014B015A01390181E290E00E949405AE
S1131220EC01009709F4A2C0C114D10409F0B3C0C1
S1131230C5010E9494056C01988F8F8B009729F447
S1131240CE010E94BD058FEF96C0C60165EA70E02D
S1131250A5010E942C0D9501215030408F89988D55
S11312606C01C20ED31ECE014996B40148E050E091
S11312700E94330D18A21E8AAA24BB246894A1F8E4
S1131280AC0EBD1EC5010E948703CE010C960E94C0
S11312908703D987C88781E090E09D878C87DB8BA3
S11312A0CA8BC601B201A3010E94170499838883E3
S11312B0E114F10419F0F701D183C0830FB6F89457
S11312C00F92809194068F5F8093940680918A0692
S11312D090918B06009749F4D0938B06C0938A06AD
S11312E080919406813081F459C0809190068823BE
S11312F059F4E0918A06F0918B068689081720F04C
S1131300D0938B06C0938A068E899091990698177C
S113131010F48093990690919A069F5F90939A0691
S113132090919106981710F48093910690E09C0197
S1131330220F331F220F331F220F331F820F931FDD
S11313408556994FB5010E948B030F900FBE809173
S11313509006882369F0E0918A06F0918B068689CD
S1131360801740F40E94DD0481E005C08FEF03C0C4
S113137081E001C081E0DF91CF910F91FF90EF9068
S1131380DF90CF90BF90AF909F908F907F906F90A1
S11313905F904F900895D88ECF8A57CF8BE996E00F
S11313A00E9479030F2EF4EAEF2EF6E0FF2EF02DC3
S11313B0C7010E9479030F2EFDEACF2EF6E0DF2E3F
S11313C0F02DC6010E94790386EB96E00E94790312
S11313D0F0929806E0929706D0929606C0929506EF
S11313E093CFAF92BF92CF92DF92EF92FF920F937F
S11313F081EF98E06AE670E045E550E020E030E0F7
S113140000E0EE24FF24CC24DD24AA24BB240E9483
S1131410F908813049F4F894809390061092930669
S1131420109292060E94A7040F91FF90EF90DF9014
S1131430CF90BF90AF900895F894109290060E94B8
S1131440DC04089580918F068F5F80938F06089542
S11314500FB6F8940F9280919206909193060F9094
S11314600FBE0895809192069091930608958091FD
S1131470940608950F931F93CF93DF9380918F0663
S1131480882309F0B3C08091920690919306019647
S1131490909393068093920680919206909193067E
S11314A0009799F58091970690919806209195065A
S11314B0309196063093980620939706909396065B
S11314C08093950680918C068F5F80938C06E091C3
S11314D09706F09198068081882339F48FEF9FEF67
S11314E09093700080936F0010C0E0919706F09184
S11314F098060580F681E02D0680F781E02D828133
S113150093819093700080936F00209192063091A4
S1131510930680916F00909170002817390708F4A2
S11315206AC0E0919706F09198068081882399F02B
S1131530E0919706F09198060580F681E02DC6812A
S1131540D7818A819B812091920630919306281736
S11315503907F8F419C08FEF9FEF909370008093D0
S11315606F0049C0E0919706F09198060580F681D6
S1131570E02DC681D7818A819B812091920630918A
S113158093062817390728F49093700080936F000E
S113159032C08E010E5F1F4FC8010E94F1038C8977
S11315A09D89009721F0CE010C960E94F1038E894B
S11315B090919106981710F48093910690E09C0105
S11315C0220F331F220F331F220F331F820F931F4B
S11315D08556994FB8010E948B03E0919706F091CC
S11315E098068081882309F0BDCFB5CF80918E06FF
S11315F08F5F80938E06DF91CF911F910F91089595
S1131600AF92BF92CF92DF92EF92FF920F931F930C
S1131610CF93DF930FB6F8940F9280918F06815089
S113162080938F0680918F06882309F069C080918A
S11316309406882381F567C0D601ED91FC91C6819B
S1131640D781CE010C960E94F1038E010E5F1F4FCD
S1131650C8010E94F1038E8990919106981710F4A5
S11316608093910690E09C01220F331F220F331FB9
S1131670220F331F820F931F8556994FB8010E9482
S11316808B03E0918A06F0918B069E8986899817D0
S113169088F0BA2C0FC0BB240F2EF6EBEF2EF6E029
S11316A0FF2EF02D0F2EFBEBCF2EF6E0DF2EF02DCC
S11316B0AA24A394F7018081882309F0BDCF8091E7
S11316C08E06882381F080918E06882399F00E94EB
S11316D03A0A80918E06815080938E0680918E0600
S11316E08823A9F707C0F1E0BF1621F080918D0689
S11316F0813041F410928D060E94DD0481E003C024
S113170080E001C080E00F900FBEDF91CF911F9168
S11317100F91FF90EF90DF90CF90BF90AF9008951E
S1131720CF93DF93EC010097B1F00E94220A8091DD
S1131730920690919306C80FD91F80918A069091C2
S11317408B0602960E94F103CE010E94BA080E9401
S1131750000B882311F40E94DD04DF91CF910895DA
S11317600F931F93CF93DF938C01EB010E94220A06
S1131770F80180819181C80FD91F20919206309180
S113178093062817390768F4C817D90750F58091CC
S1131790920690919306D183C0838C179D07B0F471
S11317A00BC0C817D907C8F0809192069091930690
S11317B08C179D0790F015C080918A0690918B0636
S11317C002960E94F103CE010E94BA080E94000B07
S11317D0882359F40E94DD0408C0F801D183C08332
S11317E0EBCFF801D183C083F1CFDF91CF911F916B
S11317F00F91089580918F06882399F48091910622
S113180090E0FC01EE0FFF1FEE0FFF1FEE0FFF1F16
S11318108E0F9F1FFC01E556F94F8081882329F024
S11318201BC081E080938D060895809191068150BC
S1131830809391068091910690E0FC01EE0FFF1FCA
S1131840EE0FFF1FEE0FFF1F8E0F9F1FFC01E556CB
S1131850F94F8081882349F38091910690E0FC013F
S1131860EE0FFF1FEE0FFF1FEE0FFF1FE80FF91F14
S1131870E556F94FA181B28112960D90BC91A02D2D
S1131880B283A183CF010396A817B90731F4129646
S11318908D919C911397928381830180F281E02D35
S11318A08681978190938B0680938A060895CF93BF
S11318B0DF93EB0160918A0670918B06645F7F4F22
S11318C00E94B40380918A0690918B0602960E942E
S11318D0F10380919206909193068C0F9D1F0E94B4
S11318E0BA08DF91CF9108950F931F93CF93DF939D
S11318F0DC011596ED91FC91169706811781E8019C
S11319002C96CE010E94F10380918F068823E9F47E
S1131910E8012296CE010E94F103F8018689909194
S11319209106981710F48093910690E09C01220F81
S1131930331F220F331F220F331F820F931F85562D
S1131940994FBE010E948B0305C086EB96E0BE0151
S11319500E948B03E0918A06F0918B0681E0D80106
S113196056962C9156979689291708F480E0DF91B2
S1131970CF911F910F910895FC0180918C06808373
S11319808091920690919306928381830895FC013D
S11319900FB6F8940F9280918C069081981749F0B5
S11319A08091920690919306218132818217930748
S11319B0F0F4809192069091930621813281DB01AB
S11319C04D915C911197821B930B8417950788F4B2
S11319D08091920690919306281B390B240F351F92
S11319E02D933C93CF010E94BC0C80E003C081E0A6
S11319F001C081E00F900FBE089581E080938D06B1
S1131A000895A1E21A2EAA1BBB1BFD010DC0AA1F3B
S1131A10BB1FEE1FFF1FA217B307E407F50720F053
S1131A20A21BB30BE40BF50B661F771F881F991FCE
S1131A301A9469F760957095809590959B01AC0117
S1131A40BD01CF010895FB01DC0102C001900D929C
S1131A5041505040D8F70895DC0101C06D934150C6
S1131A605040E0F70895FB01DC014150504048F03C
S1131A7001900D920020C9F701C01D9241505040C1
S1131A80E0F70895FB019F01E8944230C4F0453229
S1131A90B4F44A3029F497FB1EF4909581959F4F36
S1131AA0642F77270E94730D805D8A330CF0895D63
S1131AB08193CB010097A1F716F45DE25193108254
S1131AC0C9010C94630DDC01FC01672F719177232C
S1131AD0E1F7329704C07C916D9370836291AE17E5
S1131AE0BF07C8F30895AA1BBB1B51E107C0AA1F77
S1131AF0BB1FA617B70710F0A61BB70B881F991FAB
S1131B005A95A9F780959095BC01CD010895F89454
S1051B10FFCF01
S1131B124C454431004C4544320049444C4500FF95
S1051B22FF00BE
S9030000FC
