S01700004C414230365F746573745F70726F672E73726563A2
S11300000C942A000C9434000C9434000C943400A6
S11300100C9434000C9434000C9434000C9434008C
S11300200C9434000C9434000C9434000C9434007C
S11300300C9434000C9434000C9434000C9434006C
S11300400C9434000C9434000C9434000C9434005C
S11300500C94340011241FBECFE5D8E0DEBFCDBF21
S11300600E9436000C9453000C9400001ABA8FEFCF
S113007084BB8FE085BB2AE09FEFC899FECF822F17
S113008015BAEFEFF3EB3197F1F700C0000095BB21
S1130090EFEFF3EB3197F1F700C00000815081F7E7
S10D00A00C94001EEACFF894FFCF81
S9030000FC
